{
    "contractName": "MsrContract",
    "abi": [
        {
            "inputs": [],
            "stateMutability": "nonpayable",
            "type": "constructor"
        },
        {
            "anonymous": false,
            "inputs": [
                {
                    "indexed": true,
                    "internalType": "bytes32",
                    "name": "role",
                    "type": "bytes32"
                },
                {
                    "indexed": true,
                    "internalType": "bytes32",
                    "name": "previousAdminRole",
                    "type": "bytes32"
                },
                {
                    "indexed": true,
                    "internalType": "bytes32",
                    "name": "newAdminRole",
                    "type": "bytes32"
                }
            ],
            "name": "RoleAdminChanged",
            "type": "event"
        },
        {
            "anonymous": false,
            "inputs": [
                {
                    "indexed": true,
                    "internalType": "bytes32",
                    "name": "role",
                    "type": "bytes32"
                },
                {
                    "indexed": true,
                    "internalType": "address",
                    "name": "account",
                    "type": "address"
                },
                {
                    "indexed": true,
                    "internalType": "address",
                    "name": "sender",
                    "type": "address"
                }
            ],
            "name": "RoleGranted",
            "type": "event"
        },
        {
            "anonymous": false,
            "inputs": [
                {
                    "indexed": true,
                    "internalType": "bytes32",
                    "name": "role",
                    "type": "bytes32"
                },
                {
                    "indexed": true,
                    "internalType": "address",
                    "name": "account",
                    "type": "address"
                },
                {
                    "indexed": true,
                    "internalType": "address",
                    "name": "sender",
                    "type": "address"
                }
            ],
            "name": "RoleRevoked",
            "type": "event"
        },
        {
            "anonymous": false,
            "inputs": [
                {
                    "components": [
                        {
                            "internalType": "string",
                            "name": "name",
                            "type": "string"
                        },
                        {
                            "internalType": "string",
                            "name": "mrn",
                            "type": "string"
                        },
                        {
                            "internalType": "string",
                            "name": "version",
                            "type": "string"
                        },
                        {
                            "internalType": "string",
                            "name": "keywords",
                            "type": "string"
                        },
                        {
                            "internalType": "string",
                            "name": "coverageArea",
                            "type": "string"
                        },
                        {
                            "internalType": "enum MsrContract.InstanceStatus",
                            "name": "status",
                            "type": "uint8"
                        },
                        {
                            "internalType": "string",
                            "name": "implementsDesignMRN",
                            "type": "string"
                        },
                        {
                            "internalType": "string",
                            "name": "implementsDesignVersion",
                            "type": "string"
                        },
                        {
                            "internalType": "string",
                            "name": "msrName",
                            "type": "string"
                        },
                        {
                            "internalType": "string",
                            "name": "msrUrl",
                            "type": "string"
                        }
                    ],
                    "indexed": false,
                    "internalType": "struct MsrContract.ServiceInstance",
                    "name": "serviceInstance",
                    "type": "tuple"
                }
            ],
            "name": "ServiceInstanceAdded",
            "type": "event"
        },
        {
            "inputs": [],
            "name": "DEFAULT_ADMIN_ROLE",
            "outputs": [
                {
                    "internalType": "bytes32",
                    "name": "",
                    "type": "bytes32"
                }
            ],
            "stateMutability": "view",
            "type": "function"
        },
        {
            "inputs": [],
            "name": "MSR_ADMIN_ROLE",
            "outputs": [
                {
                    "internalType": "bytes32",
                    "name": "",
                    "type": "bytes32"
                }
            ],
            "stateMutability": "view",
            "type": "function"
        },
        {
            "inputs": [],
            "name": "MSR_ROLE",
            "outputs": [
                {
                    "internalType": "bytes32",
                    "name": "",
                    "type": "bytes32"
                }
            ],
            "stateMutability": "view",
            "type": "function"
        },
        {
            "inputs": [],
            "name": "SUPER_ADMIN_ROLE",
            "outputs": [
                {
                    "internalType": "bytes32",
                    "name": "",
                    "type": "bytes32"
                }
            ],
            "stateMutability": "view",
            "type": "function"
        },
        {
            "inputs": [
                {
                    "internalType": "bytes32",
                    "name": "role",
                    "type": "bytes32"
                }
            ],
            "name": "getRoleAdmin",
            "outputs": [
                {
                    "internalType": "bytes32",
                    "name": "",
                    "type": "bytes32"
                }
            ],
            "stateMutability": "view",
            "type": "function"
        },
        {
            "inputs": [
                {
                    "internalType": "bytes32",
                    "name": "role",
                    "type": "bytes32"
                },
                {
                    "internalType": "address",
                    "name": "account",
                    "type": "address"
                }
            ],
            "name": "grantRole",
            "outputs": [],
            "stateMutability": "nonpayable",
            "type": "function"
        },
        {
            "inputs": [
                {
                    "internalType": "bytes32",
                    "name": "role",
                    "type": "bytes32"
                },
                {
                    "internalType": "address",
                    "name": "account",
                    "type": "address"
                }
            ],
            "name": "hasRole",
            "outputs": [
                {
                    "internalType": "bool",
                    "name": "",
                    "type": "bool"
                }
            ],
            "stateMutability": "view",
            "type": "function"
        },
        {
            "inputs": [
                {
                    "internalType": "bytes32",
                    "name": "role",
                    "type": "bytes32"
                },
                {
                    "internalType": "address",
                    "name": "account",
                    "type": "address"
                }
            ],
            "name": "renounceRole",
            "outputs": [],
            "stateMutability": "nonpayable",
            "type": "function"
        },
        {
            "inputs": [
                {
                    "internalType": "bytes32",
                    "name": "role",
                    "type": "bytes32"
                },
                {
                    "internalType": "address",
                    "name": "account",
                    "type": "address"
                }
            ],
            "name": "revokeRole",
            "outputs": [],
            "stateMutability": "nonpayable",
            "type": "function"
        },
        {
            "inputs": [
                {
                    "internalType": "bytes4",
                    "name": "interfaceId",
                    "type": "bytes4"
                }
            ],
            "name": "supportsInterface",
            "outputs": [
                {
                    "internalType": "bool",
                    "name": "",
                    "type": "bool"
                }
            ],
            "stateMutability": "view",
            "type": "function"
        },
        {
            "inputs": [
                {
                    "internalType": "string",
                    "name": "name",
                    "type": "string"
                },
                {
                    "internalType": "string",
                    "name": "url",
                    "type": "string"
                },
                {
                    "internalType": "address",
                    "name": "account",
                    "type": "address"
                }
            ],
            "name": "addMsr",
            "outputs": [],
            "stateMutability": "nonpayable",
            "type": "function"
        },
        {
            "inputs": [],
            "name": "getMsrs",
            "outputs": [
                {
                    "components": [
                        {
                            "internalType": "string",
                            "name": "name",
                            "type": "string"
                        },
                        {
                            "internalType": "string",
                            "name": "url",
                            "type": "string"
                        }
                    ],
                    "internalType": "struct MsrContract.Msr[]",
                    "name": "",
                    "type": "tuple[]"
                }
            ],
            "stateMutability": "view",
            "type": "function"
        },
        {
            "inputs": [
                {
                    "internalType": "string",
                    "name": "instanceMrn",
                    "type": "string"
                },
                {
                    "internalType": "string",
                    "name": "version",
                    "type": "string"
                }
            ],
            "name": "getServiceInstance",
            "outputs": [
                {
                    "components": [
                        {
                            "internalType": "string",
                            "name": "name",
                            "type": "string"
                        },
                        {
                            "internalType": "string",
                            "name": "mrn",
                            "type": "string"
                        },
                        {
                            "internalType": "string",
                            "name": "version",
                            "type": "string"
                        },
                        {
                            "internalType": "string",
                            "name": "keywords",
                            "type": "string"
                        },
                        {
                            "internalType": "string",
                            "name": "coverageArea",
                            "type": "string"
                        },
                        {
                            "internalType": "enum MsrContract.InstanceStatus",
                            "name": "status",
                            "type": "uint8"
                        },
                        {
                            "internalType": "string",
                            "name": "implementsDesignMRN",
                            "type": "string"
                        },
                        {
                            "internalType": "string",
                            "name": "implementsDesignVersion",
                            "type": "string"
                        },
                        {
                            "internalType": "string",
                            "name": "msrName",
                            "type": "string"
                        },
                        {
                            "internalType": "string",
                            "name": "msrUrl",
                            "type": "string"
                        }
                    ],
                    "internalType": "struct MsrContract.ServiceInstance",
                    "name": "",
                    "type": "tuple"
                }
            ],
            "stateMutability": "view",
            "type": "function"
        },
        {
            "inputs": [],
            "name": "getServiceInstances",
            "outputs": [
                {
                    "components": [
                        {
                            "internalType": "string",
                            "name": "name",
                            "type": "string"
                        },
                        {
                            "internalType": "string",
                            "name": "mrn",
                            "type": "string"
                        },
                        {
                            "internalType": "string",
                            "name": "version",
                            "type": "string"
                        },
                        {
                            "internalType": "string",
                            "name": "keywords",
                            "type": "string"
                        },
                        {
                            "internalType": "string",
                            "name": "coverageArea",
                            "type": "string"
                        },
                        {
                            "internalType": "enum MsrContract.InstanceStatus",
                            "name": "status",
                            "type": "uint8"
                        },
                        {
                            "internalType": "string",
                            "name": "implementsDesignMRN",
                            "type": "string"
                        },
                        {
                            "internalType": "string",
                            "name": "implementsDesignVersion",
                            "type": "string"
                        },
                        {
                            "internalType": "string",
                            "name": "msrName",
                            "type": "string"
                        },
                        {
                            "internalType": "string",
                            "name": "msrUrl",
                            "type": "string"
                        }
                    ],
                    "internalType": "struct MsrContract.ServiceInstance[]",
                    "name": "",
                    "type": "tuple[]"
                }
            ],
            "stateMutability": "view",
            "type": "function"
        },
        {
            "inputs": [
                {
                    "internalType": "string",
                    "name": "keyword",
                    "type": "string"
                }
            ],
            "name": "getServiceInstancesByKeyword",
            "outputs": [
                {
                    "components": [
                        {
                            "internalType": "string",
                            "name": "name",
                            "type": "string"
                        },
                        {
                            "internalType": "string",
                            "name": "mrn",
                            "type": "string"
                        },
                        {
                            "internalType": "string",
                            "name": "version",
                            "type": "string"
                        },
                        {
                            "internalType": "string",
                            "name": "keywords",
                            "type": "string"
                        },
                        {
                            "internalType": "string",
                            "name": "coverageArea",
                            "type": "string"
                        },
                        {
                            "internalType": "enum MsrContract.InstanceStatus",
                            "name": "status",
                            "type": "uint8"
                        },
                        {
                            "internalType": "string",
                            "name": "implementsDesignMRN",
                            "type": "string"
                        },
                        {
                            "internalType": "string",
                            "name": "implementsDesignVersion",
                            "type": "string"
                        },
                        {
                            "internalType": "string",
                            "name": "msrName",
                            "type": "string"
                        },
                        {
                            "internalType": "string",
                            "name": "msrUrl",
                            "type": "string"
                        }
                    ],
                    "internalType": "struct MsrContract.ServiceInstance[]",
                    "name": "",
                    "type": "tuple[]"
                }
            ],
            "stateMutability": "view",
            "type": "function"
        },
        {
            "inputs": [
                {
                    "internalType": "string",
                    "name": "designMRN",
                    "type": "string"
                },
                {
                    "internalType": "string",
                    "name": "designVersion",
                    "type": "string"
                }
            ],
            "name": "getServiceInstancesByDesign",
            "outputs": [
                {
                    "components": [
                        {
                            "internalType": "string",
                            "name": "name",
                            "type": "string"
                        },
                        {
                            "internalType": "string",
                            "name": "mrn",
                            "type": "string"
                        },
                        {
                            "internalType": "string",
                            "name": "version",
                            "type": "string"
                        },
                        {
                            "internalType": "string",
                            "name": "keywords",
                            "type": "string"
                        },
                        {
                            "internalType": "string",
                            "name": "coverageArea",
                            "type": "string"
                        },
                        {
                            "internalType": "enum MsrContract.InstanceStatus",
                            "name": "status",
                            "type": "uint8"
                        },
                        {
                            "internalType": "string",
                            "name": "implementsDesignMRN",
                            "type": "string"
                        },
                        {
                            "internalType": "string",
                            "name": "implementsDesignVersion",
                            "type": "string"
                        },
                        {
                            "internalType": "string",
                            "name": "msrName",
                            "type": "string"
                        },
                        {
                            "internalType": "string",
                            "name": "msrUrl",
                            "type": "string"
                        }
                    ],
                    "internalType": "struct MsrContract.ServiceInstance[]",
                    "name": "",
                    "type": "tuple[]"
                }
            ],
            "stateMutability": "view",
            "type": "function"
        },
        {
            "inputs": [
                {
                    "components": [
                        {
                            "internalType": "string",
                            "name": "name",
                            "type": "string"
                        },
                        {
                            "internalType": "string",
                            "name": "mrn",
                            "type": "string"
                        },
                        {
                            "internalType": "string",
                            "name": "version",
                            "type": "string"
                        },
                        {
                            "internalType": "string",
                            "name": "keywords",
                            "type": "string"
                        },
                        {
                            "internalType": "string",
                            "name": "coverageArea",
                            "type": "string"
                        },
                        {
                            "internalType": "enum MsrContract.InstanceStatus",
                            "name": "status",
                            "type": "uint8"
                        },
                        {
                            "internalType": "string",
                            "name": "implementsDesignMRN",
                            "type": "string"
                        },
                        {
                            "internalType": "string",
                            "name": "implementsDesignVersion",
                            "type": "string"
                        },
                        {
                            "internalType": "string",
                            "name": "msrName",
                            "type": "string"
                        },
                        {
                            "internalType": "string",
                            "name": "msrUrl",
                            "type": "string"
                        }
                    ],
                    "internalType": "struct MsrContract.ServiceInstance",
                    "name": "instance",
                    "type": "tuple"
                },
                {
                    "internalType": "string[]",
                    "name": "keywords",
                    "type": "string[]"
                }
            ],
            "name": "registerServiceInstance",
            "outputs": [],
            "stateMutability": "nonpayable",
            "type": "function"
        },
        {
            "inputs": [
                {
                    "internalType": "string",
                    "name": "instanceMrn",
                    "type": "string"
                },
                {
                    "internalType": "string",
                    "name": "instanceVersion",
                    "type": "string"
                },
                {
                    "internalType": "enum MsrContract.InstanceStatus",
                    "name": "newStatus",
                    "type": "uint8"
                }
            ],
            "name": "changeInstanceStatus",
            "outputs": [],
            "stateMutability": "nonpayable",
            "type": "function"
        },
        {
            "inputs": [
                {
                    "internalType": "address",
                    "name": "msrAddress",
                    "type": "address"
                }
            ],
            "name": "deleteMsr",
            "outputs": [],
            "stateMutability": "nonpayable",
            "type": "function"
        }
    ],
    "bytecode": "0x60806040523480156200001157600080fd5b50620000447f7613a25ecc738585a232ad50a301178f12b3ba8887d13e138b523c4269c4768933620000ee60201b60201c565b620000967f18078973e738b94bc6022fad13d16178f30977483e0cea190f34f5c9fc4a8cec7f7613a25ecc738585a232ad50a301178f12b3ba8887d13e138b523c4269c476896200010460201b60201c565b620000e87fdc73fbf237fa352a91fb2fd98a4cea3976e0d281ddbb83ce675ee05ccaf0947b7f18078973e738b94bc6022fad13d16178f30977483e0cea190f34f5c9fc4a8cec6200010460201b60201c565b620002e3565b6200010082826200016160201b60201c565b5050565b8062000116836200025260201b60201c565b837fbd79b86ffe0ab8e8776151514217cd7cacd52c909f66475c3af44e129f0b00ff60405160405180910390a480600080848152602001908152602001600020600101819055505050565b6200017382826200027160201b60201c565b6200024e57600160008084815260200190815260200160002060000160008373ffffffffffffffffffffffffffffffffffffffff1673ffffffffffffffffffffffffffffffffffffffff16815260200190815260200160002060006101000a81548160ff021916908315150217905550620001f3620002db60201b60201c565b73ffffffffffffffffffffffffffffffffffffffff168173ffffffffffffffffffffffffffffffffffffffff16837f2f8788117e7eff1d82e926ec794901d17c78024a50270940304540a733656f0d60405160405180910390a45b5050565b6000806000838152602001908152602001600020600101549050919050565b600080600084815260200190815260200160002060000160008373ffffffffffffffffffffffffffffffffffffffff1673ffffffffffffffffffffffffffffffffffffffff16815260200190815260200160002060009054906101000a900460ff16905092915050565b600033905090565b614cdd80620002f36000396000f3fe608060405234801561001057600080fd5b50600436106101215760003560e01c80636dc4b5fb116100ad578063a217fddf11610071578063a217fddf1461031a578063c43565d214610338578063d1b5df1414610356578063d547741f14610372578063e9359ad91461038e57610121565b80636dc4b5fb1461025057806377ebfbdd1461028057806384710a96146102b05780638b56896a146102ce57806391d14854146102ea57610121565b8063284997fb116100f4578063284997fb146101c05780632f2ff15d146101dc57806336568abe146101f85780634460bdd614610214578063653428601461023257610121565b806301ffc9a7146101265780630c81cd1d146101565780631c871a1d14610174578063248a9ca314610190575b600080fd5b610140600480360381019061013b91906133b2565b6103be565b60405161014d91906133fa565b60405180910390f35b61015e610438565b60405161016b91906135ab565b60405180910390f35b61018e60048036038101906101899190613983565b610692565b005b6101aa60048036038101906101a59190613a35565b610e26565b6040516101b79190613a71565b60405180910390f35b6101da60048036038101906101d59190613b40565b610e45565b005b6101f660048036038101906101f19190613bd5565b6110ea565b005b610212600480360381019061020d9190613bd5565b611150565b005b61021c6111d3565b6040516102299190613a71565b60405180910390f35b61023a6111f7565b6040516102479190613e60565b60405180910390f35b61026a60048036038101906102659190613e82565b61189c565b6040516102779190613e60565b60405180910390f35b61029a60048036038101906102959190613f03565b611f91565b6040516102a79190613e60565b60405180910390f35b6102b861265b565b6040516102c59190613a71565b60405180910390f35b6102e860048036038101906102e39190613f50565b61267f565b005b61030460048036038101906102ff9190613bd5565b6127db565b60405161031191906133fa565b60405180910390f35b610322612845565b60405161032f9190613a71565b60405180910390f35b61034061284c565b60405161034d9190613a71565b60405180910390f35b610370600480360381019061036b9190613fe5565b612870565b005b61038c60048036038101906103879190613bd5565b612a0b565b005b6103a860048036038101906103a39190613e82565b612a71565b6040516103b59190614124565b60405180910390f35b60007f7965db0b000000000000000000000000000000000000000000000000000000007bffffffffffffffffffffffffffffffffffffffffffffffffffffffff1916827bffffffffffffffffffffffffffffffffffffffffffffffffffffffff19161480610431575061043082613094565b5b9050919050565b6060600060028054905067ffffffffffffffff81111561045b5761045a6135d2565b5b60405190808252806020026020018201604052801561049457816020015b6104816132c7565b8152602001906001900390816104795790505b50905060005b60028054905081101561068a57600060016000600284815481106104c1576104c0614146565b5b9060005260206000200160009054906101000a900473ffffffffffffffffffffffffffffffffffffffff1673ffffffffffffffffffffffffffffffffffffffff1673ffffffffffffffffffffffffffffffffffffffff168152602001908152602001600020905080604051806040016040529081600082018054610544906141a4565b80601f0160208091040260200160405190810160405280929190818152602001828054610570906141a4565b80156105bd5780601f10610592576101008083540402835291602001916105bd565b820191906000526020600020905b8154815290600101906020018083116105a057829003601f168201915b505050505081526020016001820180546105d6906141a4565b80601f0160208091040260200160405190810160405280929190818152602001828054610602906141a4565b801561064f5780601f106106245761010080835404028352916020019161064f565b820191906000526020600020905b81548152906001019060200180831161063257829003601f168201915b50505050508152505083838151811061066b5761066a614146565b5b60200260200101819052505080806106829061420e565b91505061049a565b508091505090565b6106bc7fdc73fbf237fa352a91fb2fd98a4cea3976e0d281ddbb83ce675ee05ccaf0947b336127db565b6106fb576040517f08c379a00000000000000000000000000000000000000000000000000000000081526004016106f2906142d9565b60405180910390fd5b600083602001518460400151604051602001610718929190614340565b6040516020818303038152906040529050600060078260405161073b91906143a0565b90815260200160405180910390206008018054610757906141a4565b905014610799576040517f08c379a000000000000000000000000000000000000000000000000000000000815260040161079090614403565b60405180910390fd5b6000816040516020016107ac91906143a0565b6040516020818303038152906040528051906020012090506006829080600181540180825580915050600190039060005260206000200160009091909190915090816107f891906145cf565b5060405180610160016040528086600001518152602001866020015181526020018660400151815260200186606001518152602001866080015181526020018660c0015181526020018660e0015181526020018660a00151600381111561086257610861613c41565b5b81526020018381526020018281526020013373ffffffffffffffffffffffffffffffffffffffff1681525060078360405161089d91906143a0565b908152602001604051809103902060008201518160000190816108c091906145cf565b5060208201518160010190816108d691906145cf565b5060408201518160020190816108ec91906145cf565b50606082015181600301908161090291906145cf565b50608082015181600401908161091891906145cf565b5060a082015181600501908161092e91906145cf565b5060c082015181600601908161094491906145cf565b5060e08201518160070160006101000a81548160ff021916908360038111156109705761096f613c41565b5b021790555061010082015181600801908161098b91906145cf565b50610120820151816009015561014082015181600a0160006101000a81548173ffffffffffffffffffffffffffffffffffffffff021916908373ffffffffffffffffffffffffffffffffffffffff160217905550905050600060405180602001604052806000815250905060005b85859050811015610b46576003868683818110610a1957610a18614146565b5b9050602002810190610a2b91906146b0565b604051610a39929190614738565b908152602001604051809103902084908060018154018082558091505060019003906000526020600020016000909190919091509081610a7991906145cf565b5081868683818110610a8e57610a8d614146565b5b9050602002810190610aa091906146b0565b604051602001610ab293929190614776565b6040516020818303038152906040529150600186869050610ad3919061479c565b8114610b3357816040518060400160405280600181526020017f2000000000000000000000000000000000000000000000000000000000000000815250604051602001610b21929190614340565b60405160208183030381529060405291505b8080610b3e9061420e565b9150506109f9565b50600081905080600785604051610b5d91906143a0565b90815260200160405180910390206003019081610b7a91906145cf565b5060008760c001518860e00151604051602001610b98929190614340565b6040516020818303038152906040529050600481604051610bb991906147d0565b908152602001604051809103902085908060018154018082558091505060019003906000526020600020016000909190919091509081610bf991906145cf565b50600560003373ffffffffffffffffffffffffffffffffffffffff1673ffffffffffffffffffffffffffffffffffffffff16815260200190815260200160002085908060018154018082558091505060019003906000526020600020016000909190919091509081610c6b91906145cf565b506000600160003373ffffffffffffffffffffffffffffffffffffffff1673ffffffffffffffffffffffffffffffffffffffff1681526020019081526020016000209050806000018054610cbe906141a4565b80601f0160208091040260200160405190810160405280929190818152602001828054610cea906141a4565b8015610d375780601f10610d0c57610100808354040283529160200191610d37565b820191906000526020600020905b815481529060010190602001808311610d1a57829003601f168201915b5050505050896101000181905250806001018054610d54906141a4565b80601f0160208091040260200160405190810160405280929190818152602001828054610d80906141a4565b8015610dcd5780601f10610da257610100808354040283529160200191610dcd565b820191906000526020600020905b815481529060010190602001808311610db057829003601f168201915b50505050508961012001819052508289606001819052507f84296ec45169687b192beaba64b617d0ffbeee06b174a576ef9af94a12a06f7989604051610e139190614124565b60405180910390a1505050505050505050565b6000806000838152602001908152602001600020600101549050919050565b610e6f7f18078973e738b94bc6022fad13d16178f30977483e0cea190f34f5c9fc4a8cec336127db565b610eae576040517f08c379a0000000000000000000000000000000000000000000000000000000008152600401610ea590614859565b60405180910390fd5b6000600160008373ffffffffffffffffffffffffffffffffffffffff1673ffffffffffffffffffffffffffffffffffffffff16815260200190815260200160002090506000816000018054610f02906141a4565b905014610f44576040517f08c379a0000000000000000000000000000000000000000000000000000000008152600401610f3b906148c5565b60405180910390fd5b610f6e7fdc73fbf237fa352a91fb2fd98a4cea3976e0d281ddbb83ce675ee05ccaf0947b836110ea565b6000604051806040016040528088888080601f016020809104026020016040519081016040528093929190818152602001838380828437600081840152601f19601f82011690508083019250505050505050815260200186868080601f016020809104026020016040519081016040528093929190818152602001838380828437600081840152601f19601f82011690508083019250505050505050815250905080600160008573ffffffffffffffffffffffffffffffffffffffff1673ffffffffffffffffffffffffffffffffffffffff168152602001908152602001600020600082015181600001908161106491906145cf565b50602082015181600101908161107a91906145cf565b509050506002839080600181540180825580915050600190039060005260206000200160009091909190916101000a81548173ffffffffffffffffffffffffffffffffffffffff021916908373ffffffffffffffffffffffffffffffffffffffff16021790555050505050505050565b6111036110f683610e26565b6110fe6130fe565b6127db565b611142576040517f08c379a000000000000000000000000000000000000000000000000000000000815260040161113990614957565b60405180910390fd5b61114c8282613106565b5050565b6111586130fe565b73ffffffffffffffffffffffffffffffffffffffff168173ffffffffffffffffffffffffffffffffffffffff16146111c5576040517f08c379a00000000000000000000000000000000000000000000000000000000081526004016111bc906149e9565b60405180910390fd5b6111cf82826131e6565b5050565b7f7613a25ecc738585a232ad50a301178f12b3ba8887d13e138b523c4269c4768981565b6060600060068054905067ffffffffffffffff81111561121a576112196135d2565b5b60405190808252806020026020018201604052801561125357816020015b6112406132e1565b8152602001906001900390816112385790505b50905060005b60068054905081101561189457600060076006838154811061127e5761127d614146565b5b906000526020600020016040516112959190614a8c565b9081526020016040518091039020905060006001600083600a0160009054906101000a900473ffffffffffffffffffffffffffffffffffffffff1673ffffffffffffffffffffffffffffffffffffffff1673ffffffffffffffffffffffffffffffffffffffff1681526020019081526020016000209050604051806101400160405280836000018054611327906141a4565b80601f0160208091040260200160405190810160405280929190818152602001828054611353906141a4565b80156113a05780601f10611375576101008083540402835291602001916113a0565b820191906000526020600020905b81548152906001019060200180831161138357829003601f168201915b505050505081526020018360010180546113b9906141a4565b80601f01602080910402602001604051908101604052809291908181526020018280546113e5906141a4565b80156114325780601f1061140757610100808354040283529160200191611432565b820191906000526020600020905b81548152906001019060200180831161141557829003601f168201915b5050505050815260200183600201805461144b906141a4565b80601f0160208091040260200160405190810160405280929190818152602001828054611477906141a4565b80156114c45780601f10611499576101008083540402835291602001916114c4565b820191906000526020600020905b8154815290600101906020018083116114a757829003601f168201915b505050505081526020018360030180546114dd906141a4565b80601f0160208091040260200160405190810160405280929190818152602001828054611509906141a4565b80156115565780601f1061152b57610100808354040283529160200191611556565b820191906000526020600020905b81548152906001019060200180831161153957829003601f168201915b5050505050815260200183600401805461156f906141a4565b80601f016020809104026020016040519081016040528092919081815260200182805461159b906141a4565b80156115e85780601f106115bd576101008083540402835291602001916115e8565b820191906000526020600020905b8154815290600101906020018083116115cb57829003601f168201915b505050505081526020018360070160009054906101000a900460ff16600381111561161657611615613c41565b5b815260200183600501805461162a906141a4565b80601f0160208091040260200160405190810160405280929190818152602001828054611656906141a4565b80156116a35780601f10611678576101008083540402835291602001916116a3565b820191906000526020600020905b81548152906001019060200180831161168657829003601f168201915b505050505081526020018360060180546116bc906141a4565b80601f01602080910402602001604051908101604052809291908181526020018280546116e8906141a4565b80156117355780601f1061170a57610100808354040283529160200191611735565b820191906000526020600020905b81548152906001019060200180831161171857829003601f168201915b5050505050815260200182600001805461174e906141a4565b80601f016020809104026020016040519081016040528092919081815260200182805461177a906141a4565b80156117c75780601f1061179c576101008083540402835291602001916117c7565b820191906000526020600020905b8154815290600101906020018083116117aa57829003601f168201915b505050505081526020018260010180546117e0906141a4565b80601f016020809104026020016040519081016040528092919081815260200182805461180c906141a4565b80156118595780601f1061182e57610100808354040283529160200191611859565b820191906000526020600020905b81548152906001019060200180831161183c57829003601f168201915b505050505081525084848151811061187457611873614146565b5b60200260200101819052505050808061188c9061420e565b915050611259565b508091505090565b60606000858585856040516020016118b79493929190614aa3565b604051602081830303815290604052905060006004826040516118da91906147d0565b908152602001604051809103902090506000818054905067ffffffffffffffff81111561190a576119096135d2565b5b60405190808252806020026020018201604052801561194357816020015b6119306132e1565b8152602001906001900390816119285790505b50905060005b8280549050811015611f82576000600784838154811061196c5761196b614146565b5b906000526020600020016040516119839190614a8c565b9081526020016040518091039020905060006001600083600a0160009054906101000a900473ffffffffffffffffffffffffffffffffffffffff1673ffffffffffffffffffffffffffffffffffffffff1673ffffffffffffffffffffffffffffffffffffffff1681526020019081526020016000209050604051806101400160405280836000018054611a15906141a4565b80601f0160208091040260200160405190810160405280929190818152602001828054611a41906141a4565b8015611a8e5780601f10611a6357610100808354040283529160200191611a8e565b820191906000526020600020905b815481529060010190602001808311611a7157829003601f168201915b50505050508152602001836001018054611aa7906141a4565b80601f0160208091040260200160405190810160405280929190818152602001828054611ad3906141a4565b8015611b205780601f10611af557610100808354040283529160200191611b20565b820191906000526020600020905b815481529060010190602001808311611b0357829003601f168201915b50505050508152602001836002018054611b39906141a4565b80601f0160208091040260200160405190810160405280929190818152602001828054611b65906141a4565b8015611bb25780601f10611b8757610100808354040283529160200191611bb2565b820191906000526020600020905b815481529060010190602001808311611b9557829003601f168201915b50505050508152602001836003018054611bcb906141a4565b80601f0160208091040260200160405190810160405280929190818152602001828054611bf7906141a4565b8015611c445780601f10611c1957610100808354040283529160200191611c44565b820191906000526020600020905b815481529060010190602001808311611c2757829003601f168201915b50505050508152602001836004018054611c5d906141a4565b80601f0160208091040260200160405190810160405280929190818152602001828054611c89906141a4565b8015611cd65780601f10611cab57610100808354040283529160200191611cd6565b820191906000526020600020905b815481529060010190602001808311611cb957829003601f168201915b505050505081526020018360070160009054906101000a900460ff166003811115611d0457611d03613c41565b5b8152602001836005018054611d18906141a4565b80601f0160208091040260200160405190810160405280929190818152602001828054611d44906141a4565b8015611d915780601f10611d6657610100808354040283529160200191611d91565b820191906000526020600020905b815481529060010190602001808311611d7457829003601f168201915b50505050508152602001836006018054611daa906141a4565b80601f0160208091040260200160405190810160405280929190818152602001828054611dd6906141a4565b8015611e235780601f10611df857610100808354040283529160200191611e23565b820191906000526020600020905b815481529060010190602001808311611e0657829003601f168201915b50505050508152602001826000018054611e3c906141a4565b80601f0160208091040260200160405190810160405280929190818152602001828054611e68906141a4565b8015611eb55780601f10611e8a57610100808354040283529160200191611eb5565b820191906000526020600020905b815481529060010190602001808311611e9857829003601f168201915b50505050508152602001826001018054611ece906141a4565b80601f0160208091040260200160405190810160405280929190818152602001828054611efa906141a4565b8015611f475780601f10611f1c57610100808354040283529160200191611f47565b820191906000526020600020905b815481529060010190602001808311611f2a57829003601f168201915b5050505050815250848481518110611f6257611f61614146565b5b602002602001018190525050508080611f7a9061420e565b915050611949565b50809350505050949350505050565b6060600060038484604051611fa7929190614738565b908152602001604051809103902090506000818054905067ffffffffffffffff811115611fd757611fd66135d2565b5b60405190808252806020026020018201604052801561201057816020015b611ffd6132e1565b815260200190600190039081611ff55790505b50905060005b828054905081101561264f576000600784838154811061203957612038614146565b5b906000526020600020016040516120509190614a8c565b9081526020016040518091039020905060006001600083600a0160009054906101000a900473ffffffffffffffffffffffffffffffffffffffff1673ffffffffffffffffffffffffffffffffffffffff1673ffffffffffffffffffffffffffffffffffffffff16815260200190815260200160002090506040518061014001604052808360000180546120e2906141a4565b80601f016020809104026020016040519081016040528092919081815260200182805461210e906141a4565b801561215b5780601f106121305761010080835404028352916020019161215b565b820191906000526020600020905b81548152906001019060200180831161213e57829003601f168201915b50505050508152602001836001018054612174906141a4565b80601f01602080910402602001604051908101604052809291908181526020018280546121a0906141a4565b80156121ed5780601f106121c2576101008083540402835291602001916121ed565b820191906000526020600020905b8154815290600101906020018083116121d057829003601f168201915b50505050508152602001836002018054612206906141a4565b80601f0160208091040260200160405190810160405280929190818152602001828054612232906141a4565b801561227f5780601f106122545761010080835404028352916020019161227f565b820191906000526020600020905b81548152906001019060200180831161226257829003601f168201915b50505050508152602001836003018054612298906141a4565b80601f01602080910402602001604051908101604052809291908181526020018280546122c4906141a4565b80156123115780601f106122e657610100808354040283529160200191612311565b820191906000526020600020905b8154815290600101906020018083116122f457829003601f168201915b5050505050815260200183600401805461232a906141a4565b80601f0160208091040260200160405190810160405280929190818152602001828054612356906141a4565b80156123a35780601f10612378576101008083540402835291602001916123a3565b820191906000526020600020905b81548152906001019060200180831161238657829003601f168201915b505050505081526020018360070160009054906101000a900460ff1660038111156123d1576123d0613c41565b5b81526020018360050180546123e5906141a4565b80601f0160208091040260200160405190810160405280929190818152602001828054612411906141a4565b801561245e5780601f106124335761010080835404028352916020019161245e565b820191906000526020600020905b81548152906001019060200180831161244157829003601f168201915b50505050508152602001836006018054612477906141a4565b80601f01602080910402602001604051908101604052809291908181526020018280546124a3906141a4565b80156124f05780601f106124c5576101008083540402835291602001916124f0565b820191906000526020600020905b8154815290600101906020018083116124d357829003601f168201915b50505050508152602001826000018054612509906141a4565b80601f0160208091040260200160405190810160405280929190818152602001828054612535906141a4565b80156125825780601f1061255757610100808354040283529160200191612582565b820191906000526020600020905b81548152906001019060200180831161256557829003601f168201915b5050505050815260200182600101805461259b906141a4565b80601f01602080910402602001604051908101604052809291908181526020018280546125c7906141a4565b80156126145780601f106125e957610100808354040283529160200191612614565b820191906000526020600020905b8154815290600101906020018083116125f757829003601f168201915b505050505081525084848151811061262f5761262e614146565b5b6020026020010181905250505080806126479061420e565b915050612016565b50809250505092915050565b7fdc73fbf237fa352a91fb2fd98a4cea3976e0d281ddbb83ce675ee05ccaf0947b81565b6000858585856040516020016126989493929190614aa3565b60405160208183030381529060405290506126d37fdc73fbf237fa352a91fb2fd98a4cea3976e0d281ddbb83ce675ee05ccaf0947b336127db565b801561274b57506007816040516126ea91906143a0565b9081526020016040518091039020600a0160009054906101000a900473ffffffffffffffffffffffffffffffffffffffff1673ffffffffffffffffffffffffffffffffffffffff163373ffffffffffffffffffffffffffffffffffffffff16145b61278a576040517f08c379a000000000000000000000000000000000000000000000000000000000815260040161278190614b63565b60405180910390fd5b8160078260405161279b91906143a0565b908152602001604051809103902060070160006101000a81548160ff021916908360038111156127ce576127cd613c41565b5b0217905550505050505050565b600080600084815260200190815260200160002060000160008373ffffffffffffffffffffffffffffffffffffffff1673ffffffffffffffffffffffffffffffffffffffff16815260200190815260200160002060009054906101000a900460ff16905092915050565b6000801b81565b7f18078973e738b94bc6022fad13d16178f30977483e0cea190f34f5c9fc4a8cec81565b61289a7f18078973e738b94bc6022fad13d16178f30977483e0cea190f34f5c9fc4a8cec336127db565b6128d9576040517f08c379a00000000000000000000000000000000000000000000000000000000081526004016128d090614bf5565b60405180910390fd5b6129037fdc73fbf237fa352a91fb2fd98a4cea3976e0d281ddbb83ce675ee05ccaf0947b82612a0b565b60005b600560008373ffffffffffffffffffffffffffffffffffffffff1673ffffffffffffffffffffffffffffffffffffffff16815260200190815260200160002080549050811015612a075760036007600560008573ffffffffffffffffffffffffffffffffffffffff1673ffffffffffffffffffffffffffffffffffffffff16815260200190815260200160002083815481106129a5576129a4614146565b5b906000526020600020016040516129bc9190614a8c565b908152602001604051809103902060070160006101000a81548160ff021916908360038111156129ef576129ee613c41565b5b021790555080806129ff9061420e565b915050612906565b5050565b612a24612a1783610e26565b612a1f6130fe565b6127db565b612a63576040517f08c379a0000000000000000000000000000000000000000000000000000000008152600401612a5a90614c87565b60405180910390fd5b612a6d82826131e6565b5050565b612a796132e1565b600085858585604051602001612a929493929190614aa3565b60405160208183030381529060405290506000600782604051612ab591906143a0565b9081526020016040518091039020905060006001600083600a0160009054906101000a900473ffffffffffffffffffffffffffffffffffffffff1673ffffffffffffffffffffffffffffffffffffffff1673ffffffffffffffffffffffffffffffffffffffff16815260200190815260200160002090506000604051806101400160405280846000018054612b49906141a4565b80601f0160208091040260200160405190810160405280929190818152602001828054612b75906141a4565b8015612bc25780601f10612b9757610100808354040283529160200191612bc2565b820191906000526020600020905b815481529060010190602001808311612ba557829003601f168201915b50505050508152602001846001018054612bdb906141a4565b80601f0160208091040260200160405190810160405280929190818152602001828054612c07906141a4565b8015612c545780601f10612c2957610100808354040283529160200191612c54565b820191906000526020600020905b815481529060010190602001808311612c3757829003601f168201915b50505050508152602001846002018054612c6d906141a4565b80601f0160208091040260200160405190810160405280929190818152602001828054612c99906141a4565b8015612ce65780601f10612cbb57610100808354040283529160200191612ce6565b820191906000526020600020905b815481529060010190602001808311612cc957829003601f168201915b50505050508152602001846003018054612cff906141a4565b80601f0160208091040260200160405190810160405280929190818152602001828054612d2b906141a4565b8015612d785780601f10612d4d57610100808354040283529160200191612d78565b820191906000526020600020905b815481529060010190602001808311612d5b57829003601f168201915b50505050508152602001846004018054612d91906141a4565b80601f0160208091040260200160405190810160405280929190818152602001828054612dbd906141a4565b8015612e0a5780601f10612ddf57610100808354040283529160200191612e0a565b820191906000526020600020905b815481529060010190602001808311612ded57829003601f168201915b505050505081526020018460070160009054906101000a900460ff166003811115612e3857612e37613c41565b5b8152602001846005018054612e4c906141a4565b80601f0160208091040260200160405190810160405280929190818152602001828054612e78906141a4565b8015612ec55780601f10612e9a57610100808354040283529160200191612ec5565b820191906000526020600020905b815481529060010190602001808311612ea857829003601f168201915b50505050508152602001846006018054612ede906141a4565b80601f0160208091040260200160405190810160405280929190818152602001828054612f0a906141a4565b8015612f575780601f10612f2c57610100808354040283529160200191612f57565b820191906000526020600020905b815481529060010190602001808311612f3a57829003601f168201915b50505050508152602001836000018054612f70906141a4565b80601f0160208091040260200160405190810160405280929190818152602001828054612f9c906141a4565b8015612fe95780601f10612fbe57610100808354040283529160200191612fe9565b820191906000526020600020905b815481529060010190602001808311612fcc57829003601f168201915b50505050508152602001836001018054613002906141a4565b80601f016020809104026020016040519081016040528092919081815260200182805461302e906141a4565b801561307b5780601f106130505761010080835404028352916020019161307b565b820191906000526020600020905b81548152906001019060200180831161305e57829003601f168201915b5050505050815250905080945050505050949350505050565b60007f01ffc9a7000000000000000000000000000000000000000000000000000000007bffffffffffffffffffffffffffffffffffffffffffffffffffffffff1916827bffffffffffffffffffffffffffffffffffffffffffffffffffffffff1916149050919050565b600033905090565b61311082826127db565b6131e257600160008084815260200190815260200160002060000160008373ffffffffffffffffffffffffffffffffffffffff1673ffffffffffffffffffffffffffffffffffffffff16815260200190815260200160002060006101000a81548160ff0219169083151502179055506131876130fe565b73ffffffffffffffffffffffffffffffffffffffff168173ffffffffffffffffffffffffffffffffffffffff16837f2f8788117e7eff1d82e926ec794901d17c78024a50270940304540a733656f0d60405160405180910390a45b5050565b6131f082826127db565b156132c357600080600084815260200190815260200160002060000160008373ffffffffffffffffffffffffffffffffffffffff1673ffffffffffffffffffffffffffffffffffffffff16815260200190815260200160002060006101000a81548160ff0219169083151502179055506132686130fe565b73ffffffffffffffffffffffffffffffffffffffff168173ffffffffffffffffffffffffffffffffffffffff16837ff6391f5c32d9c69d2a47ea670b442974b53935d1edc7fd64eb21e047a839171b60405160405180910390a45b5050565b604051806040016040528060608152602001606081525090565b60405180610140016040528060608152602001606081526020016060815260200160608152602001606081526020016000600381111561332457613323613c41565b5b8152602001606081526020016060815260200160608152602001606081525090565b6000604051905090565b600080fd5b600080fd5b60007fffffffff0000000000000000000000000000000000000000000000000000000082169050919050565b61338f8161335a565b811461339a57600080fd5b50565b6000813590506133ac81613386565b92915050565b6000602082840312156133c8576133c7613350565b5b60006133d68482850161339d565b91505092915050565b60008115159050919050565b6133f4816133df565b82525050565b600060208201905061340f60008301846133eb565b92915050565b600081519050919050565b600082825260208201905092915050565b6000819050602082019050919050565b600081519050919050565b600082825260208201905092915050565b60005b8381101561347b578082015181840152602081019050613460565b60008484015250505050565b6000601f19601f8301169050919050565b60006134a382613441565b6134ad818561344c565b93506134bd81856020860161345d565b6134c681613487565b840191505092915050565b600060408301600083015184820360008601526134ee8282613498565b915050602083015184820360208601526135088282613498565b9150508091505092915050565b600061352183836134d1565b905092915050565b6000602082019050919050565b600061354182613415565b61354b8185613420565b93508360208202850161355d85613431565b8060005b85811015613599578484038952815161357a8582613515565b945061358583613529565b925060208a01995050600181019050613561565b50829750879550505050505092915050565b600060208201905081810360008301526135c58184613536565b905092915050565b600080fd5b7f4e487b7100000000000000000000000000000000000000000000000000000000600052604160045260246000fd5b61360a82613487565b810181811067ffffffffffffffff82111715613629576136286135d2565b5b80604052505050565b600061363c613346565b90506136488282613601565b919050565b600080fd5b600080fd5b600080fd5b600067ffffffffffffffff821115613677576136766135d2565b5b61368082613487565b9050602081019050919050565b82818337600083830152505050565b60006136af6136aa8461365c565b613632565b9050828152602081018484840111156136cb576136ca613657565b5b6136d684828561368d565b509392505050565b600082601f8301126136f3576136f2613652565b5b813561370384826020860161369c565b91505092915050565b6004811061371957600080fd5b50565b60008135905061372b8161370c565b92915050565b60006101408284031215613748576137476135cd565b5b613753610140613632565b9050600082013567ffffffffffffffff8111156137735761377261364d565b5b61377f848285016136de565b600083015250602082013567ffffffffffffffff8111156137a3576137a261364d565b5b6137af848285016136de565b602083015250604082013567ffffffffffffffff8111156137d3576137d261364d565b5b6137df848285016136de565b604083015250606082013567ffffffffffffffff8111156138035761380261364d565b5b61380f848285016136de565b606083015250608082013567ffffffffffffffff8111156138335761383261364d565b5b61383f848285016136de565b60808301525060a06138538482850161371c565b60a08301525060c082013567ffffffffffffffff8111156138775761387661364d565b5b613883848285016136de565b60c08301525060e082013567ffffffffffffffff8111156138a7576138a661364d565b5b6138b3848285016136de565b60e08301525061010082013567ffffffffffffffff8111156138d8576138d761364d565b5b6138e4848285016136de565b6101008301525061012082013567ffffffffffffffff81111561390a5761390961364d565b5b613916848285016136de565b6101208301525092915050565b600080fd5b600080fd5b60008083601f84011261394357613942613652565b5b8235905067ffffffffffffffff8111156139605761395f613923565b5b60208301915083602082028301111561397c5761397b613928565b5b9250929050565b60008060006040848603121561399c5761399b613350565b5b600084013567ffffffffffffffff8111156139ba576139b9613355565b5b6139c686828701613731565b935050602084013567ffffffffffffffff8111156139e7576139e6613355565b5b6139f38682870161392d565b92509250509250925092565b6000819050919050565b613a12816139ff565b8114613a1d57600080fd5b50565b600081359050613a2f81613a09565b92915050565b600060208284031215613a4b57613a4a613350565b5b6000613a5984828501613a20565b91505092915050565b613a6b816139ff565b82525050565b6000602082019050613a866000830184613a62565b92915050565b60008083601f840112613aa257613aa1613652565b5b8235905067ffffffffffffffff811115613abf57613abe613923565b5b602083019150836001820283011115613adb57613ada613928565b5b9250929050565b600073ffffffffffffffffffffffffffffffffffffffff82169050919050565b6000613b0d82613ae2565b9050919050565b613b1d81613b02565b8114613b2857600080fd5b50565b600081359050613b3a81613b14565b92915050565b600080600080600060608688031215613b5c57613b5b613350565b5b600086013567ffffffffffffffff811115613b7a57613b79613355565b5b613b8688828901613a8c565b9550955050602086013567ffffffffffffffff811115613ba957613ba8613355565b5b613bb588828901613a8c565b93509350506040613bc888828901613b2b565b9150509295509295909350565b60008060408385031215613bec57613beb613350565b5b6000613bfa85828601613a20565b9250506020613c0b85828601613b2b565b9150509250929050565b600081519050919050565b600082825260208201905092915050565b6000819050602082019050919050565b7f4e487b7100000000000000000000000000000000000000000000000000000000600052602160045260246000fd5b60048110613c8157613c80613c41565b5b50565b6000819050613c9282613c70565b919050565b6000613ca282613c84565b9050919050565b613cb281613c97565b82525050565b6000610140830160008301518482036000860152613cd68282613498565b91505060208301518482036020860152613cf08282613498565b91505060408301518482036040860152613d0a8282613498565b91505060608301518482036060860152613d248282613498565b91505060808301518482036080860152613d3e8282613498565b91505060a0830151613d5360a0860182613ca9565b5060c083015184820360c0860152613d6b8282613498565b91505060e083015184820360e0860152613d858282613498565b915050610100830151848203610100860152613da18282613498565b915050610120830151848203610120860152613dbd8282613498565b9150508091505092915050565b6000613dd68383613cb8565b905092915050565b6000602082019050919050565b6000613df682613c15565b613e008185613c20565b935083602082028501613e1285613c31565b8060005b85811015613e4e5784840389528151613e2f8582613dca565b9450613e3a83613dde565b925060208a01995050600181019050613e16565b50829750879550505050505092915050565b60006020820190508181036000830152613e7a8184613deb565b905092915050565b60008060008060408587031215613e9c57613e9b613350565b5b600085013567ffffffffffffffff811115613eba57613eb9613355565b5b613ec687828801613a8c565b9450945050602085013567ffffffffffffffff811115613ee957613ee8613355565b5b613ef587828801613a8c565b925092505092959194509250565b60008060208385031215613f1a57613f19613350565b5b600083013567ffffffffffffffff811115613f3857613f37613355565b5b613f4485828601613a8c565b92509250509250929050565b600080600080600060608688031215613f6c57613f6b613350565b5b600086013567ffffffffffffffff811115613f8a57613f89613355565b5b613f9688828901613a8c565b9550955050602086013567ffffffffffffffff811115613fb957613fb8613355565b5b613fc588828901613a8c565b93509350506040613fd88882890161371c565b9150509295509295909350565b600060208284031215613ffb57613ffa613350565b5b600061400984828501613b2b565b91505092915050565b60006101408301600083015184820360008601526140308282613498565b9150506020830151848203602086015261404a8282613498565b915050604083015184820360408601526140648282613498565b9150506060830151848203606086015261407e8282613498565b915050608083015184820360808601526140988282613498565b91505060a08301516140ad60a0860182613ca9565b5060c083015184820360c08601526140c58282613498565b91505060e083015184820360e08601526140df8282613498565b9150506101008301518482036101008601526140fb8282613498565b9150506101208301518482036101208601526141178282613498565b9150508091505092915050565b6000602082019050818103600083015261413e8184614012565b905092915050565b7f4e487b7100000000000000000000000000000000000000000000000000000000600052603260045260246000fd5b7f4e487b7100000000000000000000000000000000000000000000000000000000600052602260045260246000fd5b600060028204905060018216806141bc57607f821691505b6020821081036141cf576141ce614175565b5b50919050565b7f4e487b7100000000000000000000000000000000000000000000000000000000600052601160045260246000fd5b6000819050919050565b600061421982614204565b91507fffffffffffffffffffffffffffffffffffffffffffffffffffffffffffffffff820361424b5761424a6141d5565b5b600182019050919050565b600082825260208201905092915050565b7f596f7520646f206e6f742068617665207065726d697373696f6e20746f20726560008201527f676973746572207365727669636520696e7374616e6365732100000000000000602082015250565b60006142c3603983614256565b91506142ce82614267565b604082019050919050565b600060208201905081810360008301526142f2816142b6565b9050919050565b600081519050919050565b600081905092915050565b600061431a826142f9565b6143248185614304565b935061433481856020860161345d565b80840191505092915050565b600061434c828561430f565b9150614358828461430f565b91508190509392505050565b600081905092915050565b600061437a82613441565b6143848185614364565b935061439481856020860161345d565b80840191505092915050565b60006143ac828461436f565b915081905092915050565b7f5365727669636520696e7374616e636520616c72656164792065786973747321600082015250565b60006143ed602083614256565b91506143f8826143b7565b602082019050919050565b6000602082019050818103600083015261441c816143e0565b9050919050565b60008190508160005260206000209050919050565b60006020601f8301049050919050565b600082821b905092915050565b6000600883026144857fffffffffffffffffffffffffffffffffffffffffffffffffffffffffffffffff82614448565b61448f8683614448565b95508019841693508086168417925050509392505050565b6000819050919050565b60006144cc6144c76144c284614204565b6144a7565b614204565b9050919050565b6000819050919050565b6144e6836144b1565b6144fa6144f2826144d3565b848454614455565b825550505050565b600090565b61450f614502565b61451a8184846144dd565b505050565b5b8181101561453e57614533600082614507565b600181019050614520565b5050565b601f8211156145835761455481614423565b61455d84614438565b8101602085101561456c578190505b61458061457885614438565b83018261451f565b50505b505050565b600082821c905092915050565b60006145a660001984600802614588565b1980831691505092915050565b60006145bf8383614595565b9150826002028217905092915050565b6145d882613441565b67ffffffffffffffff8111156145f1576145f06135d2565b5b6145fb82546141a4565b614606828285614542565b600060209050601f8311600181146146395760008415614627578287015190505b61463185826145b3565b865550614699565b601f19841661464786614423565b60005b8281101561466f5784890151825560018201915060208501945060208101905061464a565b8683101561468c5784890151614688601f891682614595565b8355505b6001600288020188555050505b505050505050565b600080fd5b600080fd5b600080fd5b600080833560016020038436030381126146cd576146cc6146a1565b5b80840192508235915067ffffffffffffffff8211156146ef576146ee6146a6565b5b60208301925060018202360383131561470b5761470a6146ab565b5b509250929050565b600061471f8385614364565b935061472c83858461368d565b82840190509392505050565b6000614745828486614713565b91508190509392505050565b600061475d8385614304565b935061476a83858461368d565b82840190509392505050565b6000614782828661430f565b915061478f828486614751565b9150819050949350505050565b60006147a782614204565b91506147b283614204565b92508282039050818111156147ca576147c96141d5565b5b92915050565b60006147dc828461430f565b915081905092915050565b7f596f75206e65656420746f20626520616e204d53522061646d696e20746f206460008201527f6f20746869732100000000000000000000000000000000000000000000000000602082015250565b6000614843602783614256565b915061484e826147e7565b604082019050919050565b6000602082019050818103600083015261487281614836565b9050919050565b7f4d535220616c7265616479206578697374732100000000000000000000000000600082015250565b60006148af601383614256565b91506148ba82614879565b602082019050919050565b600060208201905081810360008301526148de816148a2565b9050919050565b7f416363657373436f6e74726f6c3a2073656e646572206d75737420626520616e60008201527f2061646d696e20746f206772616e740000000000000000000000000000000000602082015250565b6000614941602f83614256565b915061494c826148e5565b604082019050919050565b6000602082019050818103600083015261497081614934565b9050919050565b7f416363657373436f6e74726f6c3a2063616e206f6e6c792072656e6f756e636560008201527f20726f6c657320666f722073656c660000000000000000000000000000000000602082015250565b60006149d3602f83614256565b91506149de82614977565b604082019050919050565b60006020820190508181036000830152614a02816149c6565b9050919050565b60008154614a16816141a4565b614a208186614364565b94506001821660008114614a3b5760018114614a5057614a83565b60ff1983168652811515820286019350614a83565b614a5985614423565b60005b83811015614a7b57815481890152600182019150602081019050614a5c565b838801955050505b50505092915050565b6000614a988284614a09565b915081905092915050565b6000614ab0828688614751565b9150614abd828486614751565b915081905095945050505050565b7f596f7520646f206e6f742068617665207065726d697373696f6e20746f20636860008201527f616e67652074686520737461747573206f66207468697320696e7374616e636560208201527f2100000000000000000000000000000000000000000000000000000000000000604082015250565b6000614b4d604183614256565b9150614b5882614acb565b606082019050919050565b60006020820190508181036000830152614b7c81614b40565b9050919050565b7f596f7520646f206e6f742068617665207065726d697373696f6e20746f20646560008201527f6c65746520746865204d53522100000000000000000000000000000000000000602082015250565b6000614bdf602d83614256565b9150614bea82614b83565b604082019050919050565b60006020820190508181036000830152614c0e81614bd2565b9050919050565b7f416363657373436f6e74726f6c3a2073656e646572206d75737420626520616e60008201527f2061646d696e20746f207265766f6b6500000000000000000000000000000000602082015250565b6000614c71603083614256565b9150614c7c82614c15565b604082019050919050565b60006020820190508181036000830152614ca081614c64565b905091905056fea264697066735822122009dbb406759fe2f767f7af8d36283e529e18c4f91773a73d52d48ecf96da6f6a64736f6c63430008110033",
    "immutableReferences": {},
    "source": "// SPDX-License-Identifier: Apache-2.0\npragma solidity ^0.8.4;\n\nimport \"@openzeppelin/contracts/access/AccessControl.sol\";\n\ncontract MsrContract is AccessControl {\n\n    bytes32 public constant SUPER_ADMIN_ROLE = keccak256(\"SUPER_ADMIN_ROLE\");\n    bytes32 public constant MSR_ADMIN_ROLE = keccak256(\"MSR_ADMIN_ROLE\");\n    bytes32 public constant MSR_ROLE = keccak256(\"MSR_ROLE\");\n\n    struct Msr {\n        string name;\n        string url;\n    }\n\n    mapping(address => Msr) private _msrMapping;\n    address[] private _msrs;\n\n    enum InstanceStatus { Provisional, Released, Deprecated, Deleted }\n\n    struct ServiceInstance {\n        string name;\n        string mrn;\n        string version;\n        string keywords;\n        string coverageArea;\n        InstanceStatus status;\n        string implementsDesignMRN;\n        string implementsDesignVersion;\n        string msrName;\n        string msrUrl;\n    }\n\n    struct ServiceInstanceInternal {\n        string name;\n        string mrn;\n        string version;\n        string keywords;\n        string coverageArea;\n        string implementsDesignMRN;\n        string implementsDesignVersion;\n        InstanceStatus status;\n        string uid;\n        bytes32 uidHash;\n        address msr;\n    }\n\n    mapping(string => string[]) private _serviceInstanceKeywordIndex;\n    mapping(bytes => string[]) private _serviceInstanceByDesignIndex;\n    mapping(address => string[]) private _serviceInstancesByMsrIndex;\n    string[] private _serviceInstanceKeys;\n    mapping(string => ServiceInstanceInternal) private _serviceInstances;\n    event ServiceInstanceAdded(ServiceInstance serviceInstance);\n\n    constructor() {\n        _setupRole(SUPER_ADMIN_ROLE, msg.sender);\n        _setRoleAdmin(MSR_ADMIN_ROLE, SUPER_ADMIN_ROLE);\n        _setRoleAdmin(MSR_ROLE, MSR_ADMIN_ROLE);\n    }\n\n    function addMsr(string calldata name, string calldata url, address account) public {\n        require(hasRole(MSR_ADMIN_ROLE, msg.sender), \"You need to be an MSR admin to do this!\");\n        Msr storage tmp = _msrMapping[account];\n        require(bytes(tmp.name).length == 0, \"MSR already exists!\");\n        grantRole(MSR_ROLE, account);\n        Msr memory msr = Msr({name: name, url: url});\n        _msrMapping[account] = msr;\n        _msrs.push(account);\n    }\n\n    function getMsrs() public view returns (Msr[] memory) {\n        Msr[] memory msrs = new Msr[](_msrs.length);\n        for (uint i = 0; i < _msrs.length; i++) {\n            Msr storage msr = _msrMapping[_msrs[i]];\n            msrs[i] = msr;\n        }\n        return msrs;\n    }\n\n    function getServiceInstance(string calldata instanceMrn, string calldata version) public view returns (ServiceInstance memory) {\n        string memory instanceUid = string(bytes.concat(bytes(instanceMrn), bytes(version)));\n        ServiceInstanceInternal storage inst = _serviceInstances[instanceUid];\n        Msr storage msr = _msrMapping[inst.msr];\n        ServiceInstance memory instance = ServiceInstance({name: inst.name, mrn: inst.mrn, version: inst.version, keywords: inst.keywords, coverageArea: inst.coverageArea, implementsDesignMRN: inst.implementsDesignMRN, implementsDesignVersion: inst.implementsDesignVersion, status: inst.status, msrName: msr.name, msrUrl: msr.url});\n        return instance;\n    }\n\n    function getServiceInstances() public view returns (ServiceInstance[] memory) {\n        ServiceInstance[] memory serviceInstances = new ServiceInstance[](_serviceInstanceKeys.length);\n        for (uint i = 0; i < _serviceInstanceKeys.length; i++) {\n            ServiceInstanceInternal storage inst = _serviceInstances[_serviceInstanceKeys[i]];\n            Msr storage msr = _msrMapping[inst.msr];\n            serviceInstances[i] = ServiceInstance({name: inst.name, mrn: inst.mrn, version: inst.version, keywords: inst.keywords, coverageArea: inst.coverageArea, implementsDesignMRN: inst.implementsDesignMRN, implementsDesignVersion: inst.implementsDesignVersion, status: inst.status, msrName: msr.name, msrUrl: msr.url});\n        }\n\n        return serviceInstances;\n    }\n\n    function getServiceInstancesByKeyword(string calldata keyword) public view returns (ServiceInstance[] memory) {\n        string[] storage instanceKeys = _serviceInstanceKeywordIndex[keyword];\n        ServiceInstance[] memory serviceInstances = new ServiceInstance[](instanceKeys.length);\n\n        for (uint i = 0; i < instanceKeys.length; i++) {\n            ServiceInstanceInternal storage inst = _serviceInstances[instanceKeys[i]];\n            Msr storage msr = _msrMapping[inst.msr];\n            serviceInstances[i] = ServiceInstance({name: inst.name, mrn: inst.mrn, version: inst.version, keywords: inst.keywords, coverageArea: inst.coverageArea, implementsDesignMRN: inst.implementsDesignMRN, implementsDesignVersion: inst.implementsDesignVersion, status: inst.status, msrName: msr.name, msrUrl: msr.url});\n        }\n\n        return serviceInstances;\n    }\n\n    function getServiceInstancesByDesign(string calldata designMRN, string calldata designVersion) public view returns (ServiceInstance[] memory) {\n        bytes memory designUid = bytes.concat(bytes(designMRN), bytes(designVersion));\n        string[] storage instanceKeys = _serviceInstanceByDesignIndex[designUid];\n\n        ServiceInstance[] memory serviceInstances = new ServiceInstance[](instanceKeys.length);\n\n        for (uint i = 0; i < instanceKeys.length; i++) {\n            ServiceInstanceInternal storage inst = _serviceInstances[instanceKeys[i]];\n            Msr storage msr = _msrMapping[inst.msr];\n            serviceInstances[i] = ServiceInstance({name: inst.name, mrn: inst.mrn, version: inst.version, keywords: inst.keywords, coverageArea: inst.coverageArea, implementsDesignMRN: inst.implementsDesignMRN, implementsDesignVersion: inst.implementsDesignVersion, status: inst.status, msrName: msr.name, msrUrl: msr.url});\n        }\n\n        return serviceInstances;\n    }\n\n    function registerServiceInstance(ServiceInstance memory instance, string[] calldata keywords) public {\n        require(hasRole(MSR_ROLE, msg.sender), \"You do not have permission to register service instances!\");\n\n        string memory uid = string(bytes.concat(bytes(instance.mrn), bytes(instance.version)));\n        require(bytes(_serviceInstances[uid].uid).length == 0, \"Service instance already exists!\");\n\n        bytes32 uidHash = keccak256(abi.encodePacked(uid));\n        _serviceInstanceKeys.push(uid);\n        _serviceInstances[uid] = ServiceInstanceInternal({name: instance.name, mrn: instance.mrn, version: instance.version, keywords: instance.keywords, coverageArea: instance.coverageArea, implementsDesignMRN: instance.implementsDesignMRN, implementsDesignVersion: instance.implementsDesignVersion, status: instance.status, uid: uid, uidHash: uidHash, msr: msg.sender});\n\n        bytes memory keywordsConcat = \"\";\n        for (uint i = 0; i < keywords.length; i++) {\n            _serviceInstanceKeywordIndex[keywords[i]].push(uid);\n            keywordsConcat = bytes.concat(keywordsConcat, bytes(keywords[i]));\n            if (i != keywords.length - 1) {\n                keywordsConcat = bytes.concat(keywordsConcat, bytes(\" \"));\n            }\n        }\n\n        string memory keywordsConcatString = string(keywordsConcat);\n        _serviceInstances[uid].keywords = keywordsConcatString;\n\n        bytes memory designUid = bytes.concat(bytes(instance.implementsDesignMRN), bytes(instance.implementsDesignVersion));\n        _serviceInstanceByDesignIndex[designUid].push(uid);\n        _serviceInstancesByMsrIndex[msg.sender].push(uid);\n\n        Msr storage msr = _msrMapping[msg.sender];\n        instance.msrName = msr.name;\n        instance.msrUrl = msr.url;\n        instance.keywords = keywordsConcatString;\n        emit ServiceInstanceAdded(instance);\n    }\n\n    function changeInstanceStatus(string calldata instanceMrn, string calldata instanceVersion, InstanceStatus newStatus) public {\n        string memory uid = string(bytes.concat(bytes(instanceMrn), bytes(instanceVersion)));\n        require(hasRole(MSR_ROLE, msg.sender) && (msg.sender == _serviceInstances[uid].msr), \"You do not have permission to change the status of this instance!\");\n\n        _serviceInstances[uid].status = newStatus;\n    }\n\n    function deleteMsr(address msrAddress) public {\n        require(hasRole(MSR_ADMIN_ROLE, msg.sender), \"You do not have permission to delete the MSR!\");\n        revokeRole(MSR_ROLE, msrAddress);\n        for (uint i = 0; i < _serviceInstancesByMsrIndex[msrAddress].length; i++) {\n            _serviceInstances[_serviceInstancesByMsrIndex[msrAddress][i]].status = InstanceStatus.Deleted;\n        }\n    }\n}",
    "sourcePath": "/Users/dmc/Documents/GitHub/MSR_smart_contract/contracts/MsrContract.sol",
    "compiler": {
        "name": "solc",
        "version": "0.8.17+commit.8df45f5f.Emscripten.clang"
    },
    "schemaVersion": "3.4.9",
    "updatedAt": "2022-10-11T12:22:05.415Z",
    "devdoc": {
        "kind": "dev",
        "methods": {
            "getRoleAdmin(bytes32)": {
                "details": "Returns the admin role that controls `role`. See {grantRole} and {revokeRole}. To change a role's admin, use {_setRoleAdmin}."
            },
            "grantRole(bytes32,address)": {
                "details": "Grants `role` to `account`. If `account` had not been already granted `role`, emits a {RoleGranted} event. Requirements: - the caller must have ``role``'s admin role."
            },
            "hasRole(bytes32,address)": {
                "details": "Returns `true` if `account` has been granted `role`."
            },
            "renounceRole(bytes32,address)": {
                "details": "Revokes `role` from the calling account. Roles are often managed via {grantRole} and {revokeRole}: this function's purpose is to provide a mechanism for accounts to lose their privileges if they are compromised (such as when a trusted device is misplaced). If the calling account had been granted `role`, emits a {RoleRevoked} event. Requirements: - the caller must be `account`."
            },
            "revokeRole(bytes32,address)": {
                "details": "Revokes `role` from `account`. If `account` had been granted `role`, emits a {RoleRevoked} event. Requirements: - the caller must have ``role``'s admin role."
            },
            "supportsInterface(bytes4)": {
                "details": "See {IERC165-supportsInterface}."
            }
        },
        "version": 1
    },
    "userdoc": {
        "kind": "user",
        "methods": {},
        "version": 1
    }
}